{
  "_format": "hh-sol-artifact-1",
  "contractName": "Mytoken2",
  "sourceName": "contracts/Mytoken2.sol",
  "abi": [
    {
      "inputs": [
        {
          "internalType": "address",
          "name": "spender",
          "type": "address"
        },
        {
          "internalType": "uint256",
          "name": "allowance",
          "type": "uint256"
        },
        {
          "internalType": "uint256",
          "name": "needed",
          "type": "uint256"
        }
      ],
      "name": "ERC20InsufficientAllowance",
      "type": "error"
    },
    {
      "inputs": [
        {
          "internalType": "address",
          "name": "sender",
          "type": "address"
        },
        {
          "internalType": "uint256",
          "name": "balance",
          "type": "uint256"
        },
        {
          "internalType": "uint256",
          "name": "needed",
          "type": "uint256"
        }
      ],
      "name": "ERC20InsufficientBalance",
      "type": "error"
    },
    {
      "inputs": [
        {
          "internalType": "address",
          "name": "approver",
          "type": "address"
        }
      ],
      "name": "ERC20InvalidApprover",
      "type": "error"
    },
    {
      "inputs": [
        {
          "internalType": "address",
          "name": "receiver",
          "type": "address"
        }
      ],
      "name": "ERC20InvalidReceiver",
      "type": "error"
    },
    {
      "inputs": [
        {
          "internalType": "address",
          "name": "sender",
          "type": "address"
        }
      ],
      "name": "ERC20InvalidSender",
      "type": "error"
    },
    {
      "inputs": [
        {
          "internalType": "address",
          "name": "spender",
          "type": "address"
        }
      ],
      "name": "ERC20InvalidSpender",
      "type": "error"
    },
    {
      "inputs": [],
      "name": "InvalidInitialization",
      "type": "error"
    },
    {
      "inputs": [],
      "name": "NotInitializing",
      "type": "error"
    },
    {
      "inputs": [
        {
          "internalType": "address",
          "name": "owner",
          "type": "address"
        }
      ],
      "name": "OwnableInvalidOwner",
      "type": "error"
    },
    {
      "inputs": [
        {
          "internalType": "address",
          "name": "account",
          "type": "address"
        }
      ],
      "name": "OwnableUnauthorizedAccount",
      "type": "error"
    },
    {
      "anonymous": false,
      "inputs": [
        {
          "indexed": true,
          "internalType": "address",
          "name": "owner",
          "type": "address"
        },
        {
          "indexed": true,
          "internalType": "address",
          "name": "spender",
          "type": "address"
        },
        {
          "indexed": false,
          "internalType": "uint256",
          "name": "value",
          "type": "uint256"
        }
      ],
      "name": "Approval",
      "type": "event"
    },
    {
      "anonymous": false,
      "inputs": [
        {
          "indexed": false,
          "internalType": "uint64",
          "name": "version",
          "type": "uint64"
        }
      ],
      "name": "Initialized",
      "type": "event"
    },
    {
      "anonymous": false,
      "inputs": [
        {
          "indexed": true,
          "internalType": "address",
          "name": "previousOwner",
          "type": "address"
        },
        {
          "indexed": true,
          "internalType": "address",
          "name": "newOwner",
          "type": "address"
        }
      ],
      "name": "OwnershipTransferred",
      "type": "event"
    },
    {
      "anonymous": false,
      "inputs": [
        {
          "indexed": true,
          "internalType": "address",
          "name": "from",
          "type": "address"
        },
        {
          "indexed": true,
          "internalType": "address",
          "name": "to",
          "type": "address"
        },
        {
          "indexed": false,
          "internalType": "uint256",
          "name": "value",
          "type": "uint256"
        }
      ],
      "name": "Transfer",
      "type": "event"
    },
    {
      "inputs": [
        {
          "internalType": "address",
          "name": "owner",
          "type": "address"
        },
        {
          "internalType": "address",
          "name": "spender",
          "type": "address"
        }
      ],
      "name": "allowance",
      "outputs": [
        {
          "internalType": "uint256",
          "name": "",
          "type": "uint256"
        }
      ],
      "stateMutability": "view",
      "type": "function"
    },
    {
      "inputs": [
        {
          "internalType": "address",
          "name": "spender",
          "type": "address"
        },
        {
          "internalType": "uint256",
          "name": "value",
          "type": "uint256"
        }
      ],
      "name": "approve",
      "outputs": [
        {
          "internalType": "bool",
          "name": "",
          "type": "bool"
        }
      ],
      "stateMutability": "nonpayable",
      "type": "function"
    },
    {
      "inputs": [
        {
          "internalType": "address",
          "name": "account",
          "type": "address"
        }
      ],
      "name": "balanceOf",
      "outputs": [
        {
          "internalType": "uint256",
          "name": "",
          "type": "uint256"
        }
      ],
      "stateMutability": "view",
      "type": "function"
    },
    {
      "inputs": [
        {
          "internalType": "address",
          "name": "",
          "type": "address"
        }
      ],
      "name": "blackLists",
      "outputs": [
        {
          "internalType": "bool",
          "name": "",
          "type": "bool"
        }
      ],
      "stateMutability": "view",
      "type": "function"
    },
    {
      "inputs": [
        {
          "internalType": "uint256",
          "name": "_amount",
          "type": "uint256"
        }
      ],
      "name": "burn",
      "outputs": [],
      "stateMutability": "nonpayable",
      "type": "function"
    },
    {
      "inputs": [],
      "name": "decimals",
      "outputs": [
        {
          "internalType": "uint8",
          "name": "",
          "type": "uint8"
        }
      ],
      "stateMutability": "view",
      "type": "function"
    },
    {
      "inputs": [
        {
          "internalType": "uint256",
          "name": "_totalSupply",
          "type": "uint256"
        }
      ],
      "name": "initialize",
      "outputs": [],
      "stateMutability": "nonpayable",
      "type": "function"
    },
    {
      "inputs": [
        {
          "internalType": "address",
          "name": "addr",
          "type": "address"
        }
      ],
      "name": "isOperator",
      "outputs": [
        {
          "internalType": "bool",
          "name": "",
          "type": "bool"
        }
      ],
      "stateMutability": "view",
      "type": "function"
    },
    {
      "inputs": [],
      "name": "mTotalSupply",
      "outputs": [
        {
          "internalType": "uint256",
          "name": "",
          "type": "uint256"
        }
      ],
      "stateMutability": "view",
      "type": "function"
    },
    {
      "inputs": [
        {
          "internalType": "uint256",
          "name": "_amount",
          "type": "uint256"
        }
      ],
      "name": "mint",
      "outputs": [],
      "stateMutability": "nonpayable",
      "type": "function"
    },
    {
      "inputs": [],
      "name": "name",
      "outputs": [
        {
          "internalType": "string",
          "name": "",
          "type": "string"
        }
      ],
      "stateMutability": "view",
      "type": "function"
    },
    {
      "inputs": [],
      "name": "owner",
      "outputs": [
        {
          "internalType": "address",
          "name": "",
          "type": "address"
        }
      ],
      "stateMutability": "view",
      "type": "function"
    },
    {
      "inputs": [],
      "name": "renounceOwnership",
      "outputs": [],
      "stateMutability": "nonpayable",
      "type": "function"
    },
    {
      "inputs": [
        {
          "internalType": "address[]",
          "name": "_routers",
          "type": "address[]"
        },
        {
          "internalType": "bool[]",
          "name": "allows",
          "type": "bool[]"
        }
      ],
      "name": "setBlackList",
      "outputs": [],
      "stateMutability": "nonpayable",
      "type": "function"
    },
    {
      "inputs": [
        {
          "internalType": "address",
          "name": "operator",
          "type": "address"
        },
        {
          "internalType": "bool",
          "name": "canOperate",
          "type": "bool"
        }
      ],
      "name": "setOperator",
      "outputs": [],
      "stateMutability": "nonpayable",
      "type": "function"
    },
    {
      "inputs": [],
      "name": "symbol",
      "outputs": [
        {
          "internalType": "string",
          "name": "",
          "type": "string"
        }
      ],
      "stateMutability": "view",
      "type": "function"
    },
    {
      "inputs": [],
      "name": "totalSupply",
      "outputs": [
        {
          "internalType": "uint256",
          "name": "",
          "type": "uint256"
        }
      ],
      "stateMutability": "view",
      "type": "function"
    },
    {
      "inputs": [
        {
          "internalType": "address",
          "name": "to",
          "type": "address"
        },
        {
          "internalType": "uint256",
          "name": "value",
          "type": "uint256"
        }
      ],
      "name": "transfer",
      "outputs": [
        {
          "internalType": "bool",
          "name": "",
          "type": "bool"
        }
      ],
      "stateMutability": "nonpayable",
      "type": "function"
    },
    {
      "inputs": [
        {
          "internalType": "address",
          "name": "from",
          "type": "address"
        },
        {
          "internalType": "address",
          "name": "to",
          "type": "address"
        },
        {
          "internalType": "uint256",
          "name": "value",
          "type": "uint256"
        }
      ],
      "name": "transferFrom",
      "outputs": [
        {
          "internalType": "bool",
          "name": "",
          "type": "bool"
        }
      ],
      "stateMutability": "nonpayable",
      "type": "function"
    },
    {
      "inputs": [
        {
          "internalType": "address",
          "name": "newOwner",
          "type": "address"
        }
      ],
      "name": "transferOwnership",
      "outputs": [],
      "stateMutability": "nonpayable",
      "type": "function"
    }
  ],
  "bytecode": "0x608060405234801561001057600080fd5b50612060806100206000396000f3fe608060405234801561001057600080fd5b506004361061012b5760003560e01c8063715018a6116100ad578063d3f9eee711610071578063d3f9eee714610332578063dd62ed3e1461034e578063e392af3f1461037e578063f2fde38b146103ae578063fe4b84df146103ca5761012b565b8063715018a6146102a05780638da5cb5b146102aa57806395d89b41146102c8578063a0712d68146102e6578063a9059cbb146103025761012b565b8063313ce567116100f4578063313ce567146101ea57806342966c6814610208578063558a7297146102245780636d70f7ae1461024057806370a08231146102705761012b565b806257a8911461013057806306fdde031461014e578063095ea7b31461016c57806318160ddd1461019c57806323b872dd146101ba575b600080fd5b6101386103e6565b60405161014591906115f2565b60405180910390f35b6101566103ec565b604051610163919061169d565b60405180910390f35b61018660048036038101906101819190611753565b61048d565b60405161019391906117ae565b60405180910390f35b6101a46104b0565b6040516101b191906115f2565b60405180910390f35b6101d460048036038101906101cf91906117c9565b6104c8565b6040516101e191906117ae565b60405180910390f35b6101f26104f7565b6040516101ff9190611838565b60405180910390f35b610222600480360381019061021d9190611853565b610500565b005b61023e600480360381019061023991906118ac565b61050d565b005b61025a600480360381019061025591906118ec565b610570565b60405161026791906117ae565b60405180910390f35b61028a600480360381019061028591906118ec565b6105c6565b60405161029791906115f2565b60405180910390f35b6102a861061d565b005b6102b2610631565b6040516102bf9190611928565b60405180910390f35b6102d0610669565b6040516102dd919061169d565b60405180910390f35b61030060048036038101906102fb9190611853565b61070a565b005b61031c60048036038101906103179190611753565b61076e565b60405161032991906117ae565b60405180910390f35b61034c600480360381019061034791906119fe565b610791565b005b61036860048036038101906103639190611a7f565b6108a6565b60405161037591906115f2565b60405180910390f35b610398600480360381019061039391906118ec565b61093b565b6040516103a591906117ae565b60405180910390f35b6103c860048036038101906103c391906118ec565b61095b565b005b6103e460048036038101906103df9190611853565b6109e1565b005b60005481565b606060006103f8610beb565b905080600301805461040990611aee565b80601f016020809104026020016040519081016040528092919081815260200182805461043590611aee565b80156104825780601f1061045757610100808354040283529160200191610482565b820191906000526020600020905b81548152906001019060200180831161046557829003601f168201915b505050505091505090565b600080610498610c13565b90506104a5818585610c1b565b600191505092915050565b6000806104bb610beb565b9050806002015491505090565b6000806104d3610c13565b90506104e0858285610c2d565b6104eb858585610cc1565b60019150509392505050565b60006012905090565b61050a3382610db5565b50565b610515610e37565b80600260008473ffffffffffffffffffffffffffffffffffffffff1673ffffffffffffffffffffffffffffffffffffffff16815260200190815260200160002060006101000a81548160ff0219169083151502179055505050565b6000600260008373ffffffffffffffffffffffffffffffffffffffff1673ffffffffffffffffffffffffffffffffffffffff16815260200190815260200160002060009054906101000a900460ff169050919050565b6000806105d1610beb565b90508060000160008473ffffffffffffffffffffffffffffffffffffffff1673ffffffffffffffffffffffffffffffffffffffff16815260200190815260200160002054915050919050565b610625610e37565b61062f6000610ebe565b565b60008061063c610f95565b90508060000160009054906101000a900473ffffffffffffffffffffffffffffffffffffffff1691505090565b60606000610675610beb565b905080600401805461068690611aee565b80601f01602080910402602001604051908101604052809291908181526020018280546106b290611aee565b80156106ff5780601f106106d4576101008083540402835291602001916106ff565b820191906000526020600020905b8154815290600101906020018083116106e257829003601f168201915b505050505091505090565b600054816107166104b0565b6107209190611b4e565b1115610761576040517f08c379a000000000000000000000000000000000000000000000000000000000815260040161075890611bf4565b60405180910390fd5b61076b3382610fbd565b50565b600080610779610c13565b9050610786818585610cc1565b600191505092915050565b610799610e37565b8181905084849050146107e1576040517f08c379a00000000000000000000000000000000000000000000000000000000081526004016107d890611c60565b60405180910390fd5b60005b8484905081101561089f5782828281811061080257610801611c80565b5b90506020020160208101906108179190611caf565b6001600087878581811061082e5761082d611c80565b5b905060200201602081019061084391906118ec565b73ffffffffffffffffffffffffffffffffffffffff1673ffffffffffffffffffffffffffffffffffffffff16815260200190815260200160002060006101000a81548160ff0219169083151502179055508060010190506107e4565b5050505050565b6000806108b1610beb565b90508060010160008573ffffffffffffffffffffffffffffffffffffffff1673ffffffffffffffffffffffffffffffffffffffff16815260200190815260200160002060008473ffffffffffffffffffffffffffffffffffffffff1673ffffffffffffffffffffffffffffffffffffffff1681526020019081526020016000205491505092915050565b60016020528060005260406000206000915054906101000a900460ff1681565b610963610e37565b600073ffffffffffffffffffffffffffffffffffffffff168173ffffffffffffffffffffffffffffffffffffffff16036109d55760006040517f1e4fbdf70000000000000000000000000000000000000000000000000000000081526004016109cc9190611928565b60405180910390fd5b6109de81610ebe565b50565b60006109eb61103f565b905060008160000160089054906101000a900460ff1615905060008260000160009054906101000a900467ffffffffffffffff1690506000808267ffffffffffffffff16148015610a395750825b9050600060018367ffffffffffffffff16148015610a6e575060003073ffffffffffffffffffffffffffffffffffffffff163b145b905081158015610a7c575080155b15610ab3576040517ff92ee8a900000000000000000000000000000000000000000000000000000000815260040160405180910390fd5b60018560000160006101000a81548167ffffffffffffffff021916908367ffffffffffffffff1602179055508315610b035760018560000160086101000a81548160ff0219169083151502179055505b610b776040518060400160405280601081526020017f5669737461205465737420546f6b656e000000000000000000000000000000008152506040518060400160405280600381526020017f5654540000000000000000000000000000000000000000000000000000000000815250611067565b610b803361107d565b856000819055508315610be35760008560000160086101000a81548160ff0219169083151502179055507fc7f505b2f371ae2175ee4913f4499e1f2633a7b5936321eed1cdaeb6115181d26001604051610bda9190611d35565b60405180910390a15b505050505050565b60007f52c63247e1f47db19d5ce0460030c497f067ca4cebf71ba98eeadabe20bace00905090565b600033905090565b610c288383836001611091565b505050565b6000610c3984846108a6565b90507fffffffffffffffffffffffffffffffffffffffffffffffffffffffffffffffff8114610cbb5781811015610cab578281836040517ffb8f41b2000000000000000000000000000000000000000000000000000000008152600401610ca293929190611d50565b60405180910390fd5b610cba84848484036000611091565b5b50505050565b600073ffffffffffffffffffffffffffffffffffffffff168373ffffffffffffffffffffffffffffffffffffffff1603610d335760006040517f96c6fd1e000000000000000000000000000000000000000000000000000000008152600401610d2a9190611928565b60405180910390fd5b600073ffffffffffffffffffffffffffffffffffffffff168273ffffffffffffffffffffffffffffffffffffffff1603610da55760006040517fec442f05000000000000000000000000000000000000000000000000000000008152600401610d9c9190611928565b60405180910390fd5b610db0838383611277565b505050565b600073ffffffffffffffffffffffffffffffffffffffff168273ffffffffffffffffffffffffffffffffffffffff1603610e275760006040517f96c6fd1e000000000000000000000000000000000000000000000000000000008152600401610e1e9190611928565b60405180910390fd5b610e3382600083611277565b5050565b610e3f610c13565b73ffffffffffffffffffffffffffffffffffffffff16610e5d610631565b73ffffffffffffffffffffffffffffffffffffffff1614610ebc57610e80610c13565b6040517f118cdaa7000000000000000000000000000000000000000000000000000000008152600401610eb39190611928565b60405180910390fd5b565b6000610ec8610f95565b905060008160000160009054906101000a900473ffffffffffffffffffffffffffffffffffffffff169050828260000160006101000a81548173ffffffffffffffffffffffffffffffffffffffff021916908373ffffffffffffffffffffffffffffffffffffffff1602179055508273ffffffffffffffffffffffffffffffffffffffff168173ffffffffffffffffffffffffffffffffffffffff167f8be0079c531659141344cd1fd0a4f28419497f9722a3daafe3b4186f6b6457e060405160405180910390a3505050565b60007f9016d09d72d40fdae2fd8ceac6b6234c7706214fd39c1cd1e609a0528c199300905090565b600073ffffffffffffffffffffffffffffffffffffffff168273ffffffffffffffffffffffffffffffffffffffff160361102f5760006040517fec442f050000000000000000000000000000000000000000000000000000000081526004016110269190611928565b60405180910390fd5b61103b60008383611277565b5050565b60007ff0c57e16840df040f15088dc2f81fe391c3923bec73e23a9662efc9c229c6a00905090565b61106f6114b6565b61107982826114f6565b5050565b6110856114b6565b61108e81611533565b50565b600061109b610beb565b9050600073ffffffffffffffffffffffffffffffffffffffff168573ffffffffffffffffffffffffffffffffffffffff160361110f5760006040517fe602df050000000000000000000000000000000000000000000000000000000081526004016111069190611928565b60405180910390fd5b600073ffffffffffffffffffffffffffffffffffffffff168473ffffffffffffffffffffffffffffffffffffffff16036111815760006040517f94280d620000000000000000000000000000000000000000000000000000000081526004016111789190611928565b60405180910390fd5b828160010160008773ffffffffffffffffffffffffffffffffffffffff1673ffffffffffffffffffffffffffffffffffffffff16815260200190815260200160002060008673ffffffffffffffffffffffffffffffffffffffff1673ffffffffffffffffffffffffffffffffffffffff168152602001908152602001600020819055508115611270578373ffffffffffffffffffffffffffffffffffffffff168573ffffffffffffffffffffffffffffffffffffffff167f8c5be1e5ebec7d5bd14f71427d1e84f3dd0314c0f7b2291e5b200ac8c7c3b9258560405161126791906115f2565b60405180910390a35b5050505050565b6000611281610beb565b9050600073ffffffffffffffffffffffffffffffffffffffff168473ffffffffffffffffffffffffffffffffffffffff16036112d757818160020160008282546112cb9190611b4e565b925050819055506113b0565b60008160000160008673ffffffffffffffffffffffffffffffffffffffff1673ffffffffffffffffffffffffffffffffffffffff16815260200190815260200160002054905082811015611366578481846040517fe450d38c00000000000000000000000000000000000000000000000000000000815260040161135d93929190611d50565b60405180910390fd5b8281038260000160008773ffffffffffffffffffffffffffffffffffffffff1673ffffffffffffffffffffffffffffffffffffffff16815260200190815260200160002081905550505b600073ffffffffffffffffffffffffffffffffffffffff168373ffffffffffffffffffffffffffffffffffffffff16036113fb5781816002016000828254039250508190555061144b565b818160000160008573ffffffffffffffffffffffffffffffffffffffff1673ffffffffffffffffffffffffffffffffffffffff168152602001908152602001600020600082825401925050819055505b8273ffffffffffffffffffffffffffffffffffffffff168473ffffffffffffffffffffffffffffffffffffffff167fddf252ad1be2c89b69c2b068fc378daa952ba7f163c4a11628f55a4df523b3ef846040516114a891906115f2565b60405180910390a350505050565b6114be6115b9565b6114f4576040517fd7e6bcf800000000000000000000000000000000000000000000000000000000815260040160405180910390fd5b565b6114fe6114b6565b6000611508610beb565b90508281600301908161151b9190611f58565b508181600401908161152d9190611f58565b50505050565b61153b6114b6565b600073ffffffffffffffffffffffffffffffffffffffff168173ffffffffffffffffffffffffffffffffffffffff16036115ad5760006040517f1e4fbdf70000000000000000000000000000000000000000000000000000000081526004016115a49190611928565b60405180910390fd5b6115b681610ebe565b50565b60006115c361103f565b60000160089054906101000a900460ff16905090565b6000819050919050565b6115ec816115d9565b82525050565b600060208201905061160760008301846115e3565b92915050565b600081519050919050565b600082825260208201905092915050565b60005b8381101561164757808201518184015260208101905061162c565b60008484015250505050565b6000601f19601f8301169050919050565b600061166f8261160d565b6116798185611618565b9350611689818560208601611629565b61169281611653565b840191505092915050565b600060208201905081810360008301526116b78184611664565b905092915050565b600080fd5b600080fd5b600073ffffffffffffffffffffffffffffffffffffffff82169050919050565b60006116f4826116c9565b9050919050565b611704816116e9565b811461170f57600080fd5b50565b600081359050611721816116fb565b92915050565b611730816115d9565b811461173b57600080fd5b50565b60008135905061174d81611727565b92915050565b6000806040838503121561176a576117696116bf565b5b600061177885828601611712565b92505060206117898582860161173e565b9150509250929050565b60008115159050919050565b6117a881611793565b82525050565b60006020820190506117c3600083018461179f565b92915050565b6000806000606084860312156117e2576117e16116bf565b5b60006117f086828701611712565b935050602061180186828701611712565b92505060406118128682870161173e565b9150509250925092565b600060ff82169050919050565b6118328161181c565b82525050565b600060208201905061184d6000830184611829565b92915050565b600060208284031215611869576118686116bf565b5b60006118778482850161173e565b91505092915050565b61188981611793565b811461189457600080fd5b50565b6000813590506118a681611880565b92915050565b600080604083850312156118c3576118c26116bf565b5b60006118d185828601611712565b92505060206118e285828601611897565b9150509250929050565b600060208284031215611902576119016116bf565b5b600061191084828501611712565b91505092915050565b611922816116e9565b82525050565b600060208201905061193d6000830184611919565b92915050565b600080fd5b600080fd5b600080fd5b60008083601f84011261196857611967611943565b5b8235905067ffffffffffffffff81111561198557611984611948565b5b6020830191508360208202830111156119a1576119a061194d565b5b9250929050565b60008083601f8401126119be576119bd611943565b5b8235905067ffffffffffffffff8111156119db576119da611948565b5b6020830191508360208202830111156119f7576119f661194d565b5b9250929050565b60008060008060408587031215611a1857611a176116bf565b5b600085013567ffffffffffffffff811115611a3657611a356116c4565b5b611a4287828801611952565b9450945050602085013567ffffffffffffffff811115611a6557611a646116c4565b5b611a71878288016119a8565b925092505092959194509250565b60008060408385031215611a9657611a956116bf565b5b6000611aa485828601611712565b9250506020611ab585828601611712565b9150509250929050565b7f4e487b7100000000000000000000000000000000000000000000000000000000600052602260045260246000fd5b60006002820490506001821680611b0657607f821691505b602082108103611b1957611b18611abf565b5b50919050565b7f4e487b7100000000000000000000000000000000000000000000000000000000600052601160045260246000fd5b6000611b59826115d9565b9150611b64836115d9565b9250828201905080821115611b7c57611b7b611b1f565b5b92915050565b7f4f766572666c6f77206c696d697420616d6f756e742c2063616e6e6f74206d6960008201527f6e74000000000000000000000000000000000000000000000000000000000000602082015250565b6000611bde602283611618565b9150611be982611b82565b604082019050919050565b60006020820190508181036000830152611c0d81611bd1565b9050919050565b7f6d6973746d6174636820706172616d7300000000000000000000000000000000600082015250565b6000611c4a601083611618565b9150611c5582611c14565b602082019050919050565b60006020820190508181036000830152611c7981611c3d565b9050919050565b7f4e487b7100000000000000000000000000000000000000000000000000000000600052603260045260246000fd5b600060208284031215611cc557611cc46116bf565b5b6000611cd384828501611897565b91505092915050565b6000819050919050565b600067ffffffffffffffff82169050919050565b6000819050919050565b6000611d1f611d1a611d1584611cdc565b611cfa565b611ce6565b9050919050565b611d2f81611d04565b82525050565b6000602082019050611d4a6000830184611d26565b92915050565b6000606082019050611d656000830186611919565b611d7260208301856115e3565b611d7f60408301846115e3565b949350505050565b7f4e487b7100000000000000000000000000000000000000000000000000000000600052604160045260246000fd5b60008190508160005260206000209050919050565b60006020601f8301049050919050565b600082821b905092915050565b600060088302611e187fffffffffffffffffffffffffffffffffffffffffffffffffffffffffffffffff82611ddb565b611e228683611ddb565b95508019841693508086168417925050509392505050565b6000611e55611e50611e4b846115d9565b611cfa565b6115d9565b9050919050565b6000819050919050565b611e6f83611e3a565b611e83611e7b82611e5c565b848454611de8565b825550505050565b600090565b611e98611e8b565b611ea3818484611e66565b505050565b5b81811015611ec757611ebc600082611e90565b600181019050611ea9565b5050565b601f821115611f0c57611edd81611db6565b611ee684611dcb565b81016020851015611ef5578190505b611f09611f0185611dcb565b830182611ea8565b50505b505050565b600082821c905092915050565b6000611f2f60001984600802611f11565b1980831691505092915050565b6000611f488383611f1e565b9150826002028217905092915050565b611f618261160d565b67ffffffffffffffff811115611f7a57611f79611d87565b5b611f848254611aee565b611f8f828285611ecb565b600060209050601f831160018114611fc25760008415611fb0578287015190505b611fba8582611f3c565b865550612022565b601f198416611fd086611db6565b60005b82811015611ff857848901518255600182019150602085019450602081019050611fd3565b868310156120155784890151612011601f891682611f1e565b8355505b6001600288020188555050505b50505050505056fea2646970667358221220bc6bdb043417602f7e2e3494b87c061e180bcf1b4d4f258f05fdcfb8fa8b769864736f6c63430008170033",
  "linkReferences": {},
  "deployedLinkReferences": {}
}