{
  "_format": "hh-sol-artifact-1",
  "contractName": "Mytoken1",
  "sourceName": "contracts/Mytoken1.sol",
  "abi": [
    {
      "inputs": [
        {
          "internalType": "address",
          "name": "spender",
          "type": "address"
        },
        {
          "internalType": "uint256",
          "name": "allowance",
          "type": "uint256"
        },
        {
          "internalType": "uint256",
          "name": "needed",
          "type": "uint256"
        }
      ],
      "name": "ERC20InsufficientAllowance",
      "type": "error"
    },
    {
      "inputs": [
        {
          "internalType": "address",
          "name": "sender",
          "type": "address"
        },
        {
          "internalType": "uint256",
          "name": "balance",
          "type": "uint256"
        },
        {
          "internalType": "uint256",
          "name": "needed",
          "type": "uint256"
        }
      ],
      "name": "ERC20InsufficientBalance",
      "type": "error"
    },
    {
      "inputs": [
        {
          "internalType": "address",
          "name": "approver",
          "type": "address"
        }
      ],
      "name": "ERC20InvalidApprover",
      "type": "error"
    },
    {
      "inputs": [
        {
          "internalType": "address",
          "name": "receiver",
          "type": "address"
        }
      ],
      "name": "ERC20InvalidReceiver",
      "type": "error"
    },
    {
      "inputs": [
        {
          "internalType": "address",
          "name": "sender",
          "type": "address"
        }
      ],
      "name": "ERC20InvalidSender",
      "type": "error"
    },
    {
      "inputs": [
        {
          "internalType": "address",
          "name": "spender",
          "type": "address"
        }
      ],
      "name": "ERC20InvalidSpender",
      "type": "error"
    },
    {
      "inputs": [],
      "name": "InvalidInitialization",
      "type": "error"
    },
    {
      "inputs": [],
      "name": "NotInitializing",
      "type": "error"
    },
    {
      "inputs": [
        {
          "internalType": "address",
          "name": "owner",
          "type": "address"
        }
      ],
      "name": "OwnableInvalidOwner",
      "type": "error"
    },
    {
      "inputs": [
        {
          "internalType": "address",
          "name": "account",
          "type": "address"
        }
      ],
      "name": "OwnableUnauthorizedAccount",
      "type": "error"
    },
    {
      "anonymous": false,
      "inputs": [
        {
          "indexed": true,
          "internalType": "address",
          "name": "account",
          "type": "address"
        }
      ],
      "name": "AddedToBlacklist",
      "type": "event"
    },
    {
      "anonymous": false,
      "inputs": [
        {
          "indexed": true,
          "internalType": "address",
          "name": "owner",
          "type": "address"
        },
        {
          "indexed": true,
          "internalType": "address",
          "name": "spender",
          "type": "address"
        },
        {
          "indexed": false,
          "internalType": "uint256",
          "name": "value",
          "type": "uint256"
        }
      ],
      "name": "Approval",
      "type": "event"
    },
    {
      "anonymous": false,
      "inputs": [
        {
          "indexed": false,
          "internalType": "uint64",
          "name": "version",
          "type": "uint64"
        }
      ],
      "name": "Initialized",
      "type": "event"
    },
    {
      "anonymous": false,
      "inputs": [
        {
          "indexed": true,
          "internalType": "address",
          "name": "previousOwner",
          "type": "address"
        },
        {
          "indexed": true,
          "internalType": "address",
          "name": "newOwner",
          "type": "address"
        }
      ],
      "name": "OwnershipTransferred",
      "type": "event"
    },
    {
      "anonymous": false,
      "inputs": [
        {
          "indexed": true,
          "internalType": "address",
          "name": "account",
          "type": "address"
        }
      ],
      "name": "RemovedFromBlacklist",
      "type": "event"
    },
    {
      "anonymous": false,
      "inputs": [
        {
          "indexed": true,
          "internalType": "address",
          "name": "from",
          "type": "address"
        },
        {
          "indexed": true,
          "internalType": "address",
          "name": "to",
          "type": "address"
        },
        {
          "indexed": false,
          "internalType": "uint256",
          "name": "value",
          "type": "uint256"
        }
      ],
      "name": "Transfer",
      "type": "event"
    },
    {
      "inputs": [
        {
          "internalType": "address",
          "name": "account",
          "type": "address"
        }
      ],
      "name": "addToBlacklist",
      "outputs": [],
      "stateMutability": "nonpayable",
      "type": "function"
    },
    {
      "inputs": [
        {
          "internalType": "address",
          "name": "owner",
          "type": "address"
        },
        {
          "internalType": "address",
          "name": "spender",
          "type": "address"
        }
      ],
      "name": "allowance",
      "outputs": [
        {
          "internalType": "uint256",
          "name": "",
          "type": "uint256"
        }
      ],
      "stateMutability": "view",
      "type": "function"
    },
    {
      "inputs": [
        {
          "internalType": "address",
          "name": "spender",
          "type": "address"
        },
        {
          "internalType": "uint256",
          "name": "value",
          "type": "uint256"
        }
      ],
      "name": "approve",
      "outputs": [
        {
          "internalType": "bool",
          "name": "",
          "type": "bool"
        }
      ],
      "stateMutability": "nonpayable",
      "type": "function"
    },
    {
      "inputs": [
        {
          "internalType": "address",
          "name": "account",
          "type": "address"
        }
      ],
      "name": "balanceOf",
      "outputs": [
        {
          "internalType": "uint256",
          "name": "",
          "type": "uint256"
        }
      ],
      "stateMutability": "view",
      "type": "function"
    },
    {
      "inputs": [
        {
          "internalType": "address",
          "name": "",
          "type": "address"
        }
      ],
      "name": "blacklist",
      "outputs": [
        {
          "internalType": "bool",
          "name": "",
          "type": "bool"
        }
      ],
      "stateMutability": "view",
      "type": "function"
    },
    {
      "inputs": [
        {
          "internalType": "uint256",
          "name": "_amount",
          "type": "uint256"
        }
      ],
      "name": "burn",
      "outputs": [],
      "stateMutability": "nonpayable",
      "type": "function"
    },
    {
      "inputs": [],
      "name": "decimals",
      "outputs": [
        {
          "internalType": "uint8",
          "name": "",
          "type": "uint8"
        }
      ],
      "stateMutability": "view",
      "type": "function"
    },
    {
      "inputs": [],
      "name": "initialize",
      "outputs": [],
      "stateMutability": "nonpayable",
      "type": "function"
    },
    {
      "inputs": [
        {
          "internalType": "uint256",
          "name": "_amount",
          "type": "uint256"
        }
      ],
      "name": "mint",
      "outputs": [],
      "stateMutability": "nonpayable",
      "type": "function"
    },
    {
      "inputs": [],
      "name": "name",
      "outputs": [
        {
          "internalType": "string",
          "name": "",
          "type": "string"
        }
      ],
      "stateMutability": "view",
      "type": "function"
    },
    {
      "inputs": [],
      "name": "owner",
      "outputs": [
        {
          "internalType": "address",
          "name": "",
          "type": "address"
        }
      ],
      "stateMutability": "view",
      "type": "function"
    },
    {
      "inputs": [
        {
          "internalType": "address",
          "name": "account",
          "type": "address"
        }
      ],
      "name": "removeFromBlacklist",
      "outputs": [],
      "stateMutability": "nonpayable",
      "type": "function"
    },
    {
      "inputs": [],
      "name": "renounceOwnership",
      "outputs": [],
      "stateMutability": "nonpayable",
      "type": "function"
    },
    {
      "inputs": [],
      "name": "symbol",
      "outputs": [
        {
          "internalType": "string",
          "name": "",
          "type": "string"
        }
      ],
      "stateMutability": "view",
      "type": "function"
    },
    {
      "inputs": [],
      "name": "totalSupply",
      "outputs": [
        {
          "internalType": "uint256",
          "name": "",
          "type": "uint256"
        }
      ],
      "stateMutability": "view",
      "type": "function"
    },
    {
      "inputs": [
        {
          "internalType": "address",
          "name": "recipient",
          "type": "address"
        },
        {
          "internalType": "uint256",
          "name": "amount",
          "type": "uint256"
        }
      ],
      "name": "transfer",
      "outputs": [
        {
          "internalType": "bool",
          "name": "",
          "type": "bool"
        }
      ],
      "stateMutability": "nonpayable",
      "type": "function"
    },
    {
      "inputs": [
        {
          "internalType": "address",
          "name": "from",
          "type": "address"
        },
        {
          "internalType": "address",
          "name": "to",
          "type": "address"
        },
        {
          "internalType": "uint256",
          "name": "value",
          "type": "uint256"
        }
      ],
      "name": "transferFrom",
      "outputs": [
        {
          "internalType": "bool",
          "name": "",
          "type": "bool"
        }
      ],
      "stateMutability": "nonpayable",
      "type": "function"
    },
    {
      "inputs": [
        {
          "internalType": "address",
          "name": "newOwner",
          "type": "address"
        }
      ],
      "name": "transferOwnership",
      "outputs": [],
      "stateMutability": "nonpayable",
      "type": "function"
    }
  ],
  "bytecode": "0x608060405234801561001057600080fd5b506122a8806100206000396000f3fe608060405234801561001057600080fd5b50600436106101165760003560e01c8063715018a6116100a2578063a0712d6811610071578063a0712d68146102a9578063a9059cbb146102c5578063dd62ed3e146102f5578063f2fde38b14610325578063f9f92be41461034157610116565b8063715018a6146102595780638129fc1c146102635780638da5cb5b1461026d57806395d89b411461028b57610116565b8063313ce567116100e9578063313ce567146101b757806342966c68146101d557806344337ea1146101f1578063537df3b61461020d57806370a082311461022957610116565b806306fdde031461011b578063095ea7b31461013957806318160ddd1461016957806323b872dd14610187575b600080fd5b610123610371565b6040516101309190611790565b60405180910390f35b610153600480360381019061014e919061184b565b610412565b60405161016091906118a6565b60405180910390f35b610171610435565b60405161017e91906118d0565b60405180910390f35b6101a1600480360381019061019c91906118eb565b61044d565b6040516101ae91906118a6565b60405180910390f35b6101bf61047c565b6040516101cc919061195a565b60405180910390f35b6101ef60048036038101906101ea9190611975565b610485565b005b61020b600480360381019061020691906119a2565b610492565b005b610227600480360381019061022291906119a2565b6105c3565b005b610243600480360381019061023e91906119a2565b6106ea565b60405161025091906118d0565b60405180910390f35b610261610741565b005b61026b610755565b005b610275610984565b60405161028291906119de565b60405180910390f35b6102936109bc565b6040516102a09190611790565b60405180910390f35b6102c360048036038101906102be9190611975565b610a5d565b005b6102df60048036038101906102da919061184b565b610a8b565b6040516102ec91906118a6565b60405180910390f35b61030f600480360381019061030a91906119f9565b610bb7565b60405161031c91906118d0565b60405180910390f35b61033f600480360381019061033a91906119a2565b610c4c565b005b61035b600480360381019061035691906119a2565b610ccf565b60405161036891906118a6565b60405180910390f35b6060600061037d610cef565b905080600301805461038e90611a68565b80601f01602080910402602001604051908101604052809291908181526020018280546103ba90611a68565b80156104075780601f106103dc57610100808354040283529160200191610407565b820191906000526020600020905b8154815290600101906020018083116103ea57829003601f168201915b505050505091505090565b60008061041d610d17565b905061042a818585610d1f565b600191505092915050565b600080610440610cef565b9050806002015491505090565b600080610458610d17565b9050610465858285610d31565b610470858585610dc5565b60019150509392505050565b60006012905090565b61048f3382610eb9565b50565b61049a610f3b565b6000808273ffffffffffffffffffffffffffffffffffffffff1673ffffffffffffffffffffffffffffffffffffffff16815260200190815260200160002060009054906101000a900460ff1615610526576040517f08c379a000000000000000000000000000000000000000000000000000000000815260040161051d90611b0b565b60405180910390fd5b60016000808373ffffffffffffffffffffffffffffffffffffffff1673ffffffffffffffffffffffffffffffffffffffff16815260200190815260200160002060006101000a81548160ff0219169083151502179055508073ffffffffffffffffffffffffffffffffffffffff167ff9b68063b051b82957fa193585681240904fed808db8b30fc5a2d2202c6ed62760405160405180910390a250565b6105cb610f3b565b6000808273ffffffffffffffffffffffffffffffffffffffff1673ffffffffffffffffffffffffffffffffffffffff16815260200190815260200160002060009054906101000a900460ff16610656576040517f08c379a000000000000000000000000000000000000000000000000000000000815260040161064d90611b77565b60405180910390fd5b6000808273ffffffffffffffffffffffffffffffffffffffff1673ffffffffffffffffffffffffffffffffffffffff16815260200190815260200160002060006101000a81549060ff02191690558073ffffffffffffffffffffffffffffffffffffffff167f2b6bf71b58b3583add364b3d9060ebf8019650f65f5be35f5464b9cb3e4ba2d460405160405180910390a250565b6000806106f5610cef565b90508060000160008473ffffffffffffffffffffffffffffffffffffffff1673ffffffffffffffffffffffffffffffffffffffff16815260200190815260200160002054915050919050565b610749610f3b565b6107536000610fc2565b565b600061075f611099565b905060008160000160089054906101000a900460ff1615905060008260000160009054906101000a900467ffffffffffffffff1690506000808267ffffffffffffffff161480156107ad5750825b9050600060018367ffffffffffffffff161480156107e2575060003073ffffffffffffffffffffffffffffffffffffffff163b145b9050811580156107f0575080155b15610827576040517ff92ee8a900000000000000000000000000000000000000000000000000000000815260040160405180910390fd5b60018560000160006101000a81548167ffffffffffffffff021916908367ffffffffffffffff16021790555083156108775760018560000160086101000a81548160ff0219169083151502179055505b6108eb6040518060400160405280601081526020017f5669737461205465737420546f6b656e000000000000000000000000000000008152506040518060400160405280600381526020017f56545400000000000000000000000000000000000000000000000000000000008152506110c1565b6108f4336110d7565b6109213361090061047c565b60ff16600a61090f9190611cf9565b61271061091c9190611d44565b6110eb565b831561097d5760008560000160086101000a81548160ff0219169083151502179055507fc7f505b2f371ae2175ee4913f4499e1f2633a7b5936321eed1cdaeb6115181d260016040516109749190611ddf565b60405180910390a15b5050505050565b60008061098f61116d565b90508060000160009054906101000a900473ffffffffffffffffffffffffffffffffffffffff1691505090565b606060006109c8610cef565b90508060040180546109d990611a68565b80601f0160208091040260200160405190810160405280929190818152602001828054610a0590611a68565b8015610a525780601f10610a2757610100808354040283529160200191610a52565b820191906000526020600020905b815481529060010190602001808311610a3557829003601f168201915b505050505091505090565b610a8833610a6961047c565b60ff16600a610a789190611cf9565b83610a839190611d44565b6110eb565b50565b60008060003373ffffffffffffffffffffffffffffffffffffffff1673ffffffffffffffffffffffffffffffffffffffff16815260200190815260200160002060009054906101000a900460ff1615610b19576040517f08c379a0000000000000000000000000000000000000000000000000000000008152600401610b1090611e46565b60405180910390fd5b6000808473ffffffffffffffffffffffffffffffffffffffff1673ffffffffffffffffffffffffffffffffffffffff16815260200190815260200160002060009054906101000a900460ff1615610ba5576040517f08c379a0000000000000000000000000000000000000000000000000000000008152600401610b9c90611eb2565b60405180910390fd5b610baf8383611195565b905092915050565b600080610bc2610cef565b90508060010160008573ffffffffffffffffffffffffffffffffffffffff1673ffffffffffffffffffffffffffffffffffffffff16815260200190815260200160002060008473ffffffffffffffffffffffffffffffffffffffff1673ffffffffffffffffffffffffffffffffffffffff1681526020019081526020016000205491505092915050565b610c54610f3b565b600073ffffffffffffffffffffffffffffffffffffffff168173ffffffffffffffffffffffffffffffffffffffff1603610cc3576040517f08c379a0000000000000000000000000000000000000000000000000000000008152600401610cba90611f44565b60405180910390fd5b610ccc81610fc2565b50565b60006020528060005260406000206000915054906101000a900460ff1681565b60007f52c63247e1f47db19d5ce0460030c497f067ca4cebf71ba98eeadabe20bace00905090565b600033905090565b610d2c83838360016111b8565b505050565b6000610d3d8484610bb7565b90507fffffffffffffffffffffffffffffffffffffffffffffffffffffffffffffffff8114610dbf5781811015610daf578281836040517ffb8f41b2000000000000000000000000000000000000000000000000000000008152600401610da693929190611f64565b60405180910390fd5b610dbe848484840360006111b8565b5b50505050565b600073ffffffffffffffffffffffffffffffffffffffff168373ffffffffffffffffffffffffffffffffffffffff1603610e375760006040517f96c6fd1e000000000000000000000000000000000000000000000000000000008152600401610e2e91906119de565b60405180910390fd5b600073ffffffffffffffffffffffffffffffffffffffff168273ffffffffffffffffffffffffffffffffffffffff1603610ea95760006040517fec442f05000000000000000000000000000000000000000000000000000000008152600401610ea091906119de565b60405180910390fd5b610eb483838361139e565b505050565b600073ffffffffffffffffffffffffffffffffffffffff168273ffffffffffffffffffffffffffffffffffffffff1603610f2b5760006040517f96c6fd1e000000000000000000000000000000000000000000000000000000008152600401610f2291906119de565b60405180910390fd5b610f378260008361139e565b5050565b610f43610d17565b73ffffffffffffffffffffffffffffffffffffffff16610f61610984565b73ffffffffffffffffffffffffffffffffffffffff1614610fc057610f84610d17565b6040517f118cdaa7000000000000000000000000000000000000000000000000000000008152600401610fb791906119de565b60405180910390fd5b565b6000610fcc61116d565b905060008160000160009054906101000a900473ffffffffffffffffffffffffffffffffffffffff169050828260000160006101000a81548173ffffffffffffffffffffffffffffffffffffffff021916908373ffffffffffffffffffffffffffffffffffffffff1602179055508273ffffffffffffffffffffffffffffffffffffffff168173ffffffffffffffffffffffffffffffffffffffff167f8be0079c531659141344cd1fd0a4f28419497f9722a3daafe3b4186f6b6457e060405160405180910390a3505050565b60007ff0c57e16840df040f15088dc2f81fe391c3923bec73e23a9662efc9c229c6a00905090565b6110c96115dd565b6110d3828261161d565b5050565b6110df6115dd565b6110e88161165a565b50565b600073ffffffffffffffffffffffffffffffffffffffff168273ffffffffffffffffffffffffffffffffffffffff160361115d5760006040517fec442f0500000000000000000000000000000000000000000000000000000000815260040161115491906119de565b60405180910390fd5b6111696000838361139e565b5050565b60007f9016d09d72d40fdae2fd8ceac6b6234c7706214fd39c1cd1e609a0528c199300905090565b6000806111a0610d17565b90506111ad818585610dc5565b600191505092915050565b60006111c2610cef565b9050600073ffffffffffffffffffffffffffffffffffffffff168573ffffffffffffffffffffffffffffffffffffffff16036112365760006040517fe602df0500000000000000000000000000000000000000000000000000000000815260040161122d91906119de565b60405180910390fd5b600073ffffffffffffffffffffffffffffffffffffffff168473ffffffffffffffffffffffffffffffffffffffff16036112a85760006040517f94280d6200000000000000000000000000000000000000000000000000000000815260040161129f91906119de565b60405180910390fd5b828160010160008773ffffffffffffffffffffffffffffffffffffffff1673ffffffffffffffffffffffffffffffffffffffff16815260200190815260200160002060008673ffffffffffffffffffffffffffffffffffffffff1673ffffffffffffffffffffffffffffffffffffffff168152602001908152602001600020819055508115611397578373ffffffffffffffffffffffffffffffffffffffff168573ffffffffffffffffffffffffffffffffffffffff167f8c5be1e5ebec7d5bd14f71427d1e84f3dd0314c0f7b2291e5b200ac8c7c3b9258560405161138e91906118d0565b60405180910390a35b5050505050565b60006113a8610cef565b9050600073ffffffffffffffffffffffffffffffffffffffff168473ffffffffffffffffffffffffffffffffffffffff16036113fe57818160020160008282546113f29190611f9b565b925050819055506114d7565b60008160000160008673ffffffffffffffffffffffffffffffffffffffff1673ffffffffffffffffffffffffffffffffffffffff1681526020019081526020016000205490508281101561148d578481846040517fe450d38c00000000000000000000000000000000000000000000000000000000815260040161148493929190611f64565b60405180910390fd5b8281038260000160008773ffffffffffffffffffffffffffffffffffffffff1673ffffffffffffffffffffffffffffffffffffffff16815260200190815260200160002081905550505b600073ffffffffffffffffffffffffffffffffffffffff168373ffffffffffffffffffffffffffffffffffffffff160361152257818160020160008282540392505081905550611572565b818160000160008573ffffffffffffffffffffffffffffffffffffffff1673ffffffffffffffffffffffffffffffffffffffff168152602001908152602001600020600082825401925050819055505b8273ffffffffffffffffffffffffffffffffffffffff168473ffffffffffffffffffffffffffffffffffffffff167fddf252ad1be2c89b69c2b068fc378daa952ba7f163c4a11628f55a4df523b3ef846040516115cf91906118d0565b60405180910390a350505050565b6115e56116e0565b61161b576040517fd7e6bcf800000000000000000000000000000000000000000000000000000000815260040160405180910390fd5b565b6116256115dd565b600061162f610cef565b90508281600301908161164291906121a0565b508181600401908161165491906121a0565b50505050565b6116626115dd565b600073ffffffffffffffffffffffffffffffffffffffff168173ffffffffffffffffffffffffffffffffffffffff16036116d45760006040517f1e4fbdf70000000000000000000000000000000000000000000000000000000081526004016116cb91906119de565b60405180910390fd5b6116dd81610fc2565b50565b60006116ea611099565b60000160089054906101000a900460ff16905090565b600081519050919050565b600082825260208201905092915050565b60005b8381101561173a57808201518184015260208101905061171f565b60008484015250505050565b6000601f19601f8301169050919050565b600061176282611700565b61176c818561170b565b935061177c81856020860161171c565b61178581611746565b840191505092915050565b600060208201905081810360008301526117aa8184611757565b905092915050565b600080fd5b600073ffffffffffffffffffffffffffffffffffffffff82169050919050565b60006117e2826117b7565b9050919050565b6117f2816117d7565b81146117fd57600080fd5b50565b60008135905061180f816117e9565b92915050565b6000819050919050565b61182881611815565b811461183357600080fd5b50565b6000813590506118458161181f565b92915050565b60008060408385031215611862576118616117b2565b5b600061187085828601611800565b925050602061188185828601611836565b9150509250929050565b60008115159050919050565b6118a08161188b565b82525050565b60006020820190506118bb6000830184611897565b92915050565b6118ca81611815565b82525050565b60006020820190506118e560008301846118c1565b92915050565b600080600060608486031215611904576119036117b2565b5b600061191286828701611800565b935050602061192386828701611800565b925050604061193486828701611836565b9150509250925092565b600060ff82169050919050565b6119548161193e565b82525050565b600060208201905061196f600083018461194b565b92915050565b60006020828403121561198b5761198a6117b2565b5b600061199984828501611836565b91505092915050565b6000602082840312156119b8576119b76117b2565b5b60006119c684828501611800565b91505092915050565b6119d8816117d7565b82525050565b60006020820190506119f360008301846119cf565b92915050565b60008060408385031215611a1057611a0f6117b2565b5b6000611a1e85828601611800565b9250506020611a2f85828601611800565b9150509250929050565b7f4e487b7100000000000000000000000000000000000000000000000000000000600052602260045260246000fd5b60006002820490506001821680611a8057607f821691505b602082108103611a9357611a92611a39565b5b50919050565b7f5573657220697320616c7265616479206f6e2074686520626c61636b6c69737460008201527f2e00000000000000000000000000000000000000000000000000000000000000602082015250565b6000611af560218361170b565b9150611b0082611a99565b604082019050919050565b60006020820190508181036000830152611b2481611ae8565b9050919050565b7f55736572206973206e6f74206f6e2074686520626c61636b6c6973742e000000600082015250565b6000611b61601d8361170b565b9150611b6c82611b2b565b602082019050919050565b60006020820190508181036000830152611b9081611b54565b9050919050565b7f4e487b7100000000000000000000000000000000000000000000000000000000600052601160045260246000fd5b60008160011c9050919050565b6000808291508390505b6001851115611c1d57808604811115611bf957611bf8611b97565b5b6001851615611c085780820291505b8081029050611c1685611bc6565b9450611bdd565b94509492505050565b600082611c365760019050611cf2565b81611c445760009050611cf2565b8160018114611c5a5760028114611c6457611c93565b6001915050611cf2565b60ff841115611c7657611c75611b97565b5b8360020a915084821115611c8d57611c8c611b97565b5b50611cf2565b5060208310610133831016604e8410600b8410161715611cc85782820a905083811115611cc357611cc2611b97565b5b611cf2565b611cd58484846001611bd3565b92509050818404811115611cec57611ceb611b97565b5b81810290505b9392505050565b6000611d0482611815565b9150611d0f83611815565b9250611d3c7fffffffffffffffffffffffffffffffffffffffffffffffffffffffffffffffff8484611c26565b905092915050565b6000611d4f82611815565b9150611d5a83611815565b9250828202611d6881611815565b91508282048414831517611d7f57611d7e611b97565b5b5092915050565b6000819050919050565b600067ffffffffffffffff82169050919050565b6000819050919050565b6000611dc9611dc4611dbf84611d86565b611da4565b611d90565b9050919050565b611dd981611dae565b82525050565b6000602082019050611df46000830184611dd0565b92915050565b7f53656e64696e67206164647265737320697320626c61636b6c69737465642e00600082015250565b6000611e30601f8361170b565b9150611e3b82611dfa565b602082019050919050565b60006020820190508181036000830152611e5f81611e23565b9050919050565b7f526563656976696e67206164647265737320697320626c61636b6c6973746564600082015250565b6000611e9c60208361170b565b9150611ea782611e66565b602082019050919050565b60006020820190508181036000830152611ecb81611e8f565b9050919050565b7f4e6577206f776e65722063616e6e6f7420626520746865207a65726f2061646460008201527f7265737300000000000000000000000000000000000000000000000000000000602082015250565b6000611f2e60248361170b565b9150611f3982611ed2565b604082019050919050565b60006020820190508181036000830152611f5d81611f21565b9050919050565b6000606082019050611f7960008301866119cf565b611f8660208301856118c1565b611f9360408301846118c1565b949350505050565b6000611fa682611815565b9150611fb183611815565b9250828201905080821115611fc957611fc8611b97565b5b92915050565b7f4e487b7100000000000000000000000000000000000000000000000000000000600052604160045260246000fd5b60008190508160005260206000209050919050565b60006020601f8301049050919050565b600082821b905092915050565b6000600883026120607fffffffffffffffffffffffffffffffffffffffffffffffffffffffffffffffff82612023565b61206a8683612023565b95508019841693508086168417925050509392505050565b600061209d61209861209384611815565b611da4565b611815565b9050919050565b6000819050919050565b6120b783612082565b6120cb6120c3826120a4565b848454612030565b825550505050565b600090565b6120e06120d3565b6120eb8184846120ae565b505050565b5b8181101561210f576121046000826120d8565b6001810190506120f1565b5050565b601f8211156121545761212581611ffe565b61212e84612013565b8101602085101561213d578190505b61215161214985612013565b8301826120f0565b50505b505050565b600082821c905092915050565b600061217760001984600802612159565b1980831691505092915050565b60006121908383612166565b9150826002028217905092915050565b6121a982611700565b67ffffffffffffffff8111156121c2576121c1611fcf565b5b6121cc8254611a68565b6121d7828285612113565b600060209050601f83116001811461220a57600084156121f8578287015190505b6122028582612184565b86555061226a565b601f19841661221886611ffe565b60005b828110156122405784890151825560018201915060208501945060208101905061221b565b8683101561225d5784890151612259601f891682612166565b8355505b6001600288020188555050505b50505050505056fea264697066735822122086cb6baf67d3b30430496c894b0c6ce91755958f82a03351361ac513562e3abd64736f6c63430008170033",
  "linkReferences": {},
  "deployedLinkReferences": {}
}